:100000000C94D2010C94F00E0C94C90E0C94A20E18
:100010000C947B0E0C94FA010C94FA010C94540E7F
:100020000C94FA010C94AF130C94170F0C94860FD8
:100030000C94FA010C94FA010C94FA010C94FA0154
:100040000C94FA010C94FA010C94FA010C94FA0144
:100050000C94FA010C94FA010C94FA010C940A0E17
:100060000C94FA010C94FA010C94FA010C94FA0124
:100070000C94FA010C94FA010C94FA010C94FA0114
:100080000C94FA010C94FA010C94FA010C94FA0104
:100090000C94FA130C94FA010C94FA010C94FA01E2
:1000A0000C94FA010C94B8110C94FA0100000000B1
:1000B0000000004F00000007000700147F147F14A9
:1000C000242A7F2A122313086462364955225000DD
:1000D00000070000001C2241000041221C001408FF
:1000E0003E081408083E08080050300000080808C0
:1000F0000808006060000020100804023E514945D5
:100100003E00427F400042615149462141454B310A
:100110001814127F1027454545393C4A4949300398
:10012000017109073649494936064949291E0036F1
:100130003600000056360000081422410014141442
:100140001414004122140802015109063249794170
:100150003E7E1111117E7F494949363E414141227F
:100160007F4141413E7F494949417F090909013E9B
:100170004149497A7F0808087F00417F41002040BB
:10018000413F017F081422417F404040407F020CE4
:10019000027F7F0408107F3E4141413E7F090909EB
:1001A000063E4151215E7F09192946464949493198
:1001B00001017F01013F4040403F1F2040201F3F81
:1001C0004038403F63140814630708700807615102
:1001D000494543007F41410002040810200041418D
:1001E0007F0004020102044040404040000102043C
:1001F0000020545454787F484444383844444420C0
:10020000384444487F3854545418087E0901020C7D
:100210005252523E7F0804047800447D4000204042
:10022000443D007F1028440000417F40007C0418BA
:1002300004787C0804047838444444387C1414144A
:1002400008081414187C7C080404084854545420EA
:10025000043F4440203C4040207C1C2040201C3C6B
:100260004038403C44281028440C5050503C4464D2
:10027000544C44000836410000007F000000413625
:1002800008000C02040806081C2A080800030C0FCA
:1002900030333C3FC0C3CCCFF0F3FCFF0000000084
:1002A000240027002A002D00300000000000230059
:1002B000260029002C002F00080B0002020200007B
:1002C00009040000010202000005240010010524B9
:1002D000010101042402060524060001070581032B
:1002E00010004009040100020A0000000705020294
:1002F00040000007058302400000040309041201C6
:100300000002EF020140FB1F002300010102030174
:10031000506F6C6F6C7520436F72706F726174698F
:100320006F6E00506F6C6F6C7520412D537461724D
:1003300020333255340000000000250028002B0037
:100340002E00310004040404040304050202020226
:10035000040302020202060606060606040402025E
:100360000204040408020110408040102040804034
:1003700080080204018040201002011080102040FB
:1003800040200000000200090F0000030401000CDF
:10039000000000000000000000000000000000005D
:1003A0000000481511241FBECFEFDAE0DEBFCDBF3D
:1003B00011E0A0E0B1E0EAE9F7E302C005900D9298
:1003C000AE3BB107D9F723E0AEEBB1E001C01D921F
:1003D000AB3FB207E1F711E0C2EDD1E004C02197D5
:1003E000FE010E94961BC13DD107C9F70E949A15D4
:1003F0000C94CB1B0C9400005B9887FD5D9A87FFE3
:100400005D985B9A5B9886FD5D9A86FF5D985B9A26
:100410005B9885FD5D9A85FF5D985B9A5B9884FD8E
:100420005D9A84FF5D985B9A5B9883FD5D9A83FF7C
:100430005D985B9A5B9882FD5D9A82FF5D985B9AFE
:100440005B9881FD5D9A81FF5D985B9A5B9880FD6A
:100450005D9A80FF5D985B9A0895FC018091AE02E1
:10046000882311F13FB7F89482E08093E90020914E
:10047000F200822F90E01816190614F481E090E043
:10048000882339F0289844E64093AD024091F1006A
:100490004083222339F02091F200211103C02BE682
:1004A0002093E8003FBF08958FEF9FEF08952FB787
:1004B000F89483E08093E9009091E800892F80729E
:1004C00095FF04C09091F20080E4891B2FBF08952E
:1004D0008091A50281110DC082E08093A10284E089
:1004E0008093A2021092A4021092A30281E0809352
:1004F000A50281EA92E0089581508F3008F047C04C
:10050000E82FF0E0EA57FD4F0C94961BA302A702D8
:1005100095029B029F02C702C702C702AA02B0024D
:10052000B402B802BE02C702C202809180008F7777
:10053000809380000895809180008F7DF9CF809115
:100540008000877FF5CF84B58F7784BD089584B50B
:100550008F7DFBCF809190008F77809390000895DE
:10056000809190008F7DF9CF80919000877FF5CFAB
:100570008091C0008F778093C00008958091C00063
:100580008F7DF9CF8091C200877F8093C20008954C
:100590001F93CF93DF93282F30E0F901EE57FC4FE4
:1005A0008491F901ED59FC4FD491F901EC5BFC4FBA
:1005B000C491CC23A9F0162F81110E947C02EC2F4C
:1005C000F0E0EE0FFF1FEA5CFC4FA591B4918FB7EE
:1005D000F894EC91111108C0D095DE23DC938FBF05
:1005E000DF91CF911F910895DE2BF8CF3FB7F8949C
:1005F00080919D0290919E02A0919F02B091A002D5
:1006000026B5A89B05C02F3F19F00196A11DB11D6D
:100610003FBFBA2FA92F982F8827BC01CD01620FA9
:10062000711D811D911D42E0660F771F881F991F64
:100630004A95D1F708958F929F92AF92BF92CF9231
:10064000DF92EF92FF924B015C010E94F6026B0178
:100650007C010E94F6026C197D098E099F09683E93
:10066000734081059105A8F321E0821A9108A10841
:10067000B10888EEC80E83E0D81EE11CF11C81147D
:100680009104A104B10429F7FF90EF90DF90CF907F
:10069000BF90AF909F908F900895089540916C0205
:1006A00050916D0220916A0230916B0242175307FC
:1006B000B4F49091E8009570E1F39091E80092FD18
:1006C00019C08093F10080916C0290916D020196A7
:1006D0008F739927892B19F48EEF8093E80080910E
:1006E0006C0290916D02019690936D0280936C0262
:1006F00081E0089580E00895DF92EF92FF920F93DA
:100700001F93CF93DF93D82E8A01EB017B01E40E78
:10071000F51ECE15DF0559F0D7FE12C0FE018491FB
:100720000E944E0321968111F4CF0FEF1FEFC801F5
:10073000DF91CF911F910F91FF90EF90DF9008957F
:100740008881EECF0F931F93CF93DF931F92CDB786
:10075000DEB782E0898342E450E068EB72E080E833
:100760000E947C030E946802DC0112960D911C918C
:100770000115110589F0D801ED91FC910280F381FA
:10078000E02DBE016F5F7F4FC801099597FD04C042
:10079000F80100851185ECCF89810F90DF91CF9111
:1007A0001F910F910895615030F02091F100FC01EC
:1007B00020830196F8CF289884E68093AD020895AF
:1007C0008F929F92AF92BF92CF92DF92EF92FF9261
:1007D0000F931F93CF93DF936C017B018A0180916C
:1007E0001501882309F45CC08091AE02882309F4C6
:1007F00057C08091700280FF05C08091E000826048
:100800008093E000E801B12C8AEFA82E93E0892EB6
:100810002AE3922E209711F4BB20D9F10E945702AF
:1008200081110AC0AA94AA20D9F161E070E080E0A9
:1008300090E00E941B03EECF8C171D0611F00CF008
:100840008C2F9FB7F8948092E9002091E80025FD55
:1008500002C09FBFDFCF282F30E0C21BD30BF701B0
:10086000815020F041914093F100FACFE20EF31E47
:10087000BB2021F09092E800B12CEBCF8091E800F2
:1008800085FDE7CF9092E800BB24B394209709F34D
:10089000F3CF5D9884E680936F02101611063CF04A
:1008A00081E090E0F6019383828310E000E0C801CC
:1008B000DF91CF911F910F91FF90EF90DF90CF903C
:1008C000BF90AF909F908F900895CF93DF931F922A
:1008D000CDB7DEB76983DC01ED91FC910280F38135
:1008E000E02D41E050E0BE016F5F7F4F09950F9012
:1008F000DF91CF91089583E08093E9008091F20029
:10090000882319F08AE38093E80008950E94570233
:1009100090E00895CF93DF931F92CDB7DEB7FC012F
:100920008485958597FD08C02FEF3FEF3587248795
:100930000F90DF91CF910895CE0101960E942D0274
:10094000019719F4898190E0F3CF8FEF9FEFF0CFFB
:100950000F931F93CF93DF931F92CDB7DEB78C0118
:10096000FC018485958597FF0BC0CE0101960E94FE
:100970002D02019771F4898190E0F80195878487B1
:10098000F801848595850F90DF91CF911F910F918C
:1009900008958FEF9FEFF1CFFC018485958597FD3A
:1009A0000BC09FB7F89482E08093E9008091F20039
:1009B0009FBF90E0019608959FB7F89482E08093DE
:1009C000E9008091F2009FBF90E008958091670256
:1009D000E0916802F0916902882339F084919FEBDD
:1009E000980F9A3120F4805E08958081F8CF80328C
:1009F00069F42091680230916902A9014F5F5F4F4D
:100A00005093690240936802232B01F708951F93C6
:100A1000CF93DF930E94E604D0E0C0E01AE090EDAF
:100A2000980F9A30B8F41C9F90011D9F300D11242F
:100A3000E901C80FD11D87FDDA95E0978091680222
:100A400090916902019690936902809368020E94D6
:100A5000E604E5CFCE01DF91CF911F9108953F923B
:100A60004F925F926F927F928F929F92AF92BF92BE
:100A7000CF92DF92EF92FF920F931F93CF93DF936A
:100A80007B01D42E2091640221111BC021E0209310
:100A90006402109272001092C00034E03093C100E2
:100AA00039E03093C2002093C30023E02093BF00BD
:100AB00028EE2093D1001092BF001092D200579AD6
:100AC000789410920901CC24C39497FF03C09F77B8
:100AD000AAE0CA2EC8E2CC9EC02D1124D0E08C170B
:100AE0009D0750F021E0EC01C21206C0C13187E23F
:100AF000D80710F0C0E1D7E24E01B12CA12C4C2C4C
:100B0000512C712C612C9E01AFEFB7E00E949C1B11
:100B1000640D751D861D971D96958795779567952C
:100B2000A30192010E94551B60E072E18AE790E008
:100B3000312C3394621773078407950728F0969534
:100B4000879577956795F5CFA30192010E94111BB8
:100B50009E0136952795620F731F811D911DA5017A
:100B600094010E94551B722E022F132F2AE0C212ED
:100B700007C0CE0105966AE070E00E942D1BEB01D4
:100B8000C83E83E0D80759F09701DE010E949C1B04
:100B900028EE33E040E050E00E94771B790110928C
:100BA00072008091C100807F83298093C1001093DF
:100BB000BF007092D1004D2D403108F04FE080E130
:100BC00090E0841B910902C0169507958A95E2F77B
:100BD0001093BF000093D200F0926602E09265028B
:100BE00089B38FEF89BB84E080937200DF91CF914E
:100BF0001F910F91FF90EF90DF90CF90BF90AF903B
:100C00009F908F907F906F905F904F903F9008954E
:100C10000F931F93CF93DF93EC01888581112FC031
:100C2000898590E0FC01ED59FC4F8C5B9C4F21E0E5
:100C300028872A85222309F44CC02491FC01849141
:100C40008823C9F090E0880F991FFC01E456FD4FFE
:100C500045915491FC01EA5CFC4FA591B4919FB77A
:100C6000F894FA013081822F809583238083EC9160
:100C7000E22BEC939FBF8FE090E00197F1F729857D
:100C800030E0F901EE57FC4F8491F901ED59FC4F2A
:100C90000491F901EC5BFC4F1491112309F437C066
:100CA00081110E947C02E12FF0E0EE0FFF1FE6555C
:100CB000FD4FA591B491EC910E2331E009F430E0A1
:100CC000832F2B8582278170DF91CF911F910F9108
:100CD00008952491FC018491882309F4CCCF90E0FD
:100CE000880F991FFC01E456FD4F45915491FC017A
:100CF000EA5CFC4FA591B4919FB7F894FA0180810A
:100D00002095822380838C91E22FE823B2CF80E06C
:100D1000D8CF2E98269A2D98259A2A98229A2998E3
:100D2000219A80EA8093800081E18093810080E9AC
:100D300091E0909387008093860010928900109232
:100D4000880010928B0010928A000895CF93DF9351
:100D5000EC0180916002811105C081E08093600206
:100D60000E94890680E0D7FF04C0D195C195D109C2
:100D700081E0D0938900C0938800811102C0299836
:100D800001C0299A219ADF91CF910895CF93DF93E3
:100D9000EC0180916002811105C081E080936002C6
:100DA0000E94890680E0D7FF04C0D195C195D10982
:100DB00081E0D0938B00C0938A00811102C02A98F1
:100DC00001C02A9A229ADF91CF9108959FB1917024
:100DD0008CB186FB882780F9892720915F023091AA
:100DE0005E02409174025091750228273927231B17
:100DF000330B240F351F309375022093740230910A
:100E00005E0220915F02381729F0291719F021E0BE
:100E100020935D0280935E0290935F02089520917B
:100E20001002260F3327331F21323105ECF42091B5
:100E30003402FC0190E080E0243069F082E0089503
:100E4000A09110022191AC0140515E4FA40FB52F2B
:100E5000B11D2C930196861798F380911002680FAC
:100E60006093100280E0089581E0089508958FEF67
:100E70009FEF08958FEF9FEF08958091E90190E033
:100E80009195819591090895CF93DF93CB01EA0164
:100E9000642F0E940F07CE01DF91CF910895CF9369
:100EA000DF931F92CDB7DEB7698361E0CE01019673
:100EB0000E940F0781E090E00F90DF91CF9108959D
:100EC000289A209A08952898209A08955F926F9200
:100ED0007F928F929F92AF92BF92CF92DF92EF92CA
:100EE000FF920F931F93CF93DF935C01D62FC42FF4
:100EF000F22E132F0E9463078D2F806B0E94FC013E
:100F00008C2F82958F7080610E94FC018C2F8F70D6
:100F10000E94FC010E946007CF2DD12F0C0F1D2FC6
:100F2000111D95E0692EC017D10709F444C07990CE
:100F3000872D8052990B9C01629EC001639E900D8B
:100F40001124769C40011124F12CE12C9C012455A4
:100F50003F4F69013FE1371508F5F601EE0DFF1D22
:100F6000E491F0E084E0F595E7958A95E1F7E457A0
:100F7000FD4F5490852D0E94FC01852D0E94FC019F
:100F80009FEFE91AF90A25E0E216F10419F780E06B
:100F90000E94FC0180E00E94FC01C5CF87E0E0E0F8
:100FA0008715F8F2F401EE0DFF1DE254FF4FEA0D34
:100FB000FB1DE081D6CFDF91CF911F910F91FF9064
:100FC000EF90DF90CF90BF90AF909F908F907F90E9
:100FD0006F905F9008955F926F927F928F929F9231
:100FE000AF92BF92CF92DF92EF92FF920F931F9337
:100FF000CF93DF935C01D62FC42FF22E132F0E94C4
:1010000063078D2F806B0E94FC018C2F82958F705F
:1010100080610E94FC018C2F8F700E94FC010E9455
:101020006007CF2DD12F0C0F1D2F111D85E0682ECD
:10103000C017D10709F440C07990872D8052990BD1
:101040009C01629EC001639E900D1124769C40011C
:101050001124F12CE12C9C0124553F4F69013FE103
:101060003715E8F4F601EE0DFF1DE491EF70F0E0A6
:10107000E457FD4F5490852D0E94FC01852D0E9460
:10108000FC019FEFE91AF90A25E0E216F10439F7AD
:1010900080E00E94FC0180E00E94FC01C9CF87E053
:1010A000E0E0871518F3F401EE0DFF1DE254FF4F49
:1010B000EA0DFB1DE081DACFDF91CF911F910F91F7
:1010C000FF90EF90DF90CF90BF90AF909F908F9068
:1010D0007F906F905F900895282F21FB0EF0559818
:1010E00020FB0EF05D980EF45D9A21FB0EF4559AEC
:1010F0000895CF93DF932091E7013091E801F90142
:10110000EE0FFF1FEE0FFF1FE154FE4F6083718350
:1011100082839383C90101966AE070E00E94411BBB
:101120009093E8018093E701CFEBD1E060E070E0BD
:10113000CB0129913991499159910E94D61821E00A
:10114000C73ED207B1F720E030E040E251E40E9410
:101150004719609382027093830280938402909374
:101160008502DF91CF910895CF92DF92EF92FF92A7
:1011700060917E0270917F02809180029091810245
:101180000E94EA192AE730E341E65EE30E949F1AD3
:101190002DEC3CE643E654E40E9447196B017C01C8
:1011A000609178027091790280917A0290917B022D
:1011B0000E94EA192AE730E341E65EE30E949F1AA3
:1011C0002DEC3CE643E654E40E9447199B01AC0138
:1011D000C701B6010E94D61820E030E040E05FE38E
:1011E0000E949F1A60938602709387028093880200
:1011F00090938902FF90EF90DF90CF900895CF9366
:10120000DF93EC0188810E946C08298121FB0EF09C
:10121000209820FB0EF028980EF4289A21FB0EF45B
:10122000209AE9EEF0E010828C818093F0008B81AF
:1012300080838A818093E200DF91CF910895FC0141
:10124000A2EEB0E08C9182831C92A9EEB0E08C916A
:1012500083831C92A0EFB0E08C9184831C9220E0E9
:101260005D99216055992260208320E028992160B2
:101270002099226021835D98559A0895CF92DF923C
:10128000EF92FF920F93CF93DF93EC017C0184E008
:10129000E80EF11CC7010E941F096E0184E1C80E0F
:1012A000D11C08E0960143E162E0CE010E94EB0709
:1012B000960143E163E0CE010E9466076E0189E278
:1012C000C80ED11C960143E165E0CE010E94EB07F8
:1012D000960143E166E0CE010E946607C701DF91F7
:1012E000CF910F91FF90EF90DF90CF900C94FF087B
:1012F000CF92DF92EF92FF920F93CF93DF93EC01A7
:101300007C0184E0E80EF11CC7010E941F096E01F8
:1013100084E1C80ED11C0BE0960142E060E0CE01F2
:101320000E94EB07960142E061E0CE010E94660751
:101330006E0189E2C80ED11C960142E062E0CE0146
:101340000E94EB07960142E063E0CE010E9466072F
:101350006E018EE3C80ED11C960142E064E0CE011E
:101360000E94EB07960142E065E0CE010E9466070D
:101370006E0183E5C80ED11C960142E066E0CE0105
:101380000E94EB07960142E067E0CE010E946607EB
:10139000C701DF91CF910F91FF90EF90DF90CF9039
:1013A0000C94FF08EF92FF920F931F93CF93DF935C
:1013B0008C017C0184E0E80EF11CC7010E941F092A
:1013C0000E94630782E00E94FC01C0E00E94630764
:1013D0008C2F806B0E94FC0180E10E94FC010E9426
:1013E0006007D0E080E00E94FC01DF5FD038D1F7D9
:1013F000CF5FC83059F7C7010E94FF08F801128675
:10140000DF91CF911F910F91FF90EF900895AF92D0
:10141000BF92CF92DF92EF92FF920F931F93CF93E1
:10142000DF937C01122F683008F043C0423008F08F
:1014300040C088E0861B8217D0F12223D1F1C42F4F
:10144000CC0FC40FDCE06D9FD02D1124DD5E670151
:1014500024E1C20ED11C862F90E025E1429F800D31
:10146000911D1124C80ED91E570184E0A80EB11C8D
:10147000C5010E941F0962E06C0F012F96014D2FDC
:10148000C7010E94EB0763E06C0F96014D2FC70167
:101490000E946607C501DF91CF911F910F91FF90C8
:1014A000EF90DF90CF90BF90AF900C94FF08182F73
:1014B000C6CFDF91CF911F910F91FF90EF90DF90FA
:1014C000CF90BF90AF900895AF92BF92CF92DF922E
:1014D000EF92FF920F931F93CF93DF937C01D22F54
:1014E0006B3008F040C04430F0F58BE0861B82176B
:1014F000C0F12223C1F1142F110FCCE06C9FC02D3D
:101500001124CE5F670124E1C20ED11C862F90E02A
:1015100025E1429F800D911D1124C80ED91E57014F
:1015200084E0A80EB11CC5010E941F090D2F960171
:101530004C2F612FC7010E94EB0761E0610F9601FC
:101540004C2FC7010E946607C501DF91CF911F9103
:101550000F91FF90EF90DF90CF90BF90AF900C94E1
:10156000FF08D82FC8CFDF91CF911F910F91FF9027
:10157000EF90DF90CF90BF90AF9008958091BE0123
:10158000811145C081E08093BE0124982C9A6A980D
:10159000729A6E98769A8098889A8093680090E103
:1015A00090936B008BBB86EE96E090931F01809327
:1015B0001E0180916A008F7C806180936A00EE9AA0
:1015C0008CB182FB882780F980935C0293B1809173
:1015D0005C0292959170892780935B02109273024E
:1015E0001092720210925A028FB1817080935F0242
:1015F0009CB180915F0296FB992790F9892780938F
:101600005E02109275021092740210925D020895AB
:10161000089590E080E008950E94B61BFB010190C0
:101620000020E9F73197AF01461B570BDC01ED9124
:10163000FC910280F381E02D09948F929F92AF92EA
:10164000BF92EF92FF920F931F93CF93DF93CDB78B
:10165000DEB7A1970FB6F894DEBF0FBECDBF7C01F9
:10166000FA01CB0119A2223008F42AE08E010F5DA5
:101670001F4F822E912CB12CA12CBF01A5019401EA
:101680000E94551BF901CA016A300CF5605DD80152
:101690006E938D01232B242B252B79F790E080E08E
:1016A000109721F0BD01C7010E940E0BA1960FB645
:1016B000F894DEBF0FBECDBFDF91CF911F910F9188
:1016C000FF90EF90BF90AF909F908F900895695CCE
:1016D000DECFCF93DF93BC018FEA92E00E940E0B26
:1016E000EC016EE671E08FEA92E00E940E0B8C0F27
:1016F0009D1FDF91CF9108952F923F924F925F925D
:101700006F927F928F929F92AF92BF92CF92DF9211
:10171000EF92FF921F93CF93DF93EC016A017B015D
:10172000722EAB019601CB01B6010E940C1B61E742
:1017300071E0811126C046015701E894B7F82FEFF8
:101740003FEF4FE75FE7C501B4010E940C1B811119
:101750000CC02FEF3FEF4FE75FE7C501B4010E94D8
:10176000421965E771E0181664F02FEF3FEF4FE77D
:101770005FE4C701B6010E949A1A1816B4F469E72B
:1017800071E0CE01DF91CF911F91FF90EF90DF903C
:10179000CF90BF90AF909F908F907F906F905F9011
:1017A0004F903F902F900C940E0B2FEF3FEF4FE791
:1017B0005FECC701B6010E94421987FDE0CF20E02F
:1017C00030E0A901C701B6010E944219312C212C39
:1017D00087FF0DC0E881F9810190F081E02D6DE275
:1017E000CE0109951C01F7FAF094F7F8F09410E097
:1017F00060E070E080E09FE3711641F020E030E0AF
:1018000040E251E40E9447191F5FF6CFA7019601FD
:101810000E94D6182B013C010E94B9194B015C01B2
:101820002AE0BC01A401CE010E941D0B7C01E20C48
:10183000F31C1123E1F1C501B4010E94E8199B01D9
:10184000AC01C301B2010E94D5184B015C01E881D3
:10185000F9810190F081E02D6EE2CE010995E80E4C
:10186000F91E115020F120E030E040E251E4C501C2
:10187000B4010E949F1A2B013C010E94B9194B012F
:10188000B12CA12C2AE0B501A401CE010E941D0BB0
:10189000E80EF91EC501B4010E94E8199B01AC01D4
:1018A000C301B2010E94D5184B015C01DACFC70118
:1018B000DF91CF911F91FF90EF90DF90CF90BF907D
:1018C000AF909F908F907F906F905F904F903F90E0
:1018D0002F9008951F93CF93DF9385ED8093BC00E5
:1018E0008091EC019091ED01A091EE01B091EF019A
:1018F0000796A11DB11D23E0B695A79597958795ED
:101900002A95D1F72091BC0024FD03C01092340227
:1019100052C04091EC015091ED016091EE01709147
:10192000EF01452B462B472B69F30097A105B10525
:1019300041F02AE22A95F1F700C00197A109B10907
:10194000E1CF8091EB01C1E0C093EA01882399F1D6
:10195000D091B8001091BA008091BC008A7B80932E
:10196000BC0060E082E00E94C80260E083E00E9468
:10197000C80210923402C09336021092350261E020
:1019800082E00E94C80261E083E00E94C802809168
:10199000B9008E7F8093B9008091B9008D7F8093CC
:1019A000B90088E48093B80085E48093BC0010936C
:1019B000BA00D093B800DF91CF911F9108950F9393
:1019C0001F93CF93DF93FC01218521112EC0EC01E1
:1019D0005B98539A5A98529AF5E3FA95F1F70000FA
:1019E0005A9A529A85E38A95F1F70000CE010E9437
:1019F000D2098E010C5F1F4FC8010E941F090E946F
:101A0000630781EA0E94FC0188EC0E94FC0181E8E6
:101A10000E94FC018FEF0E94FC018FEA0E94FC01F2
:101A2000C8010E94FF0881E08987DF91CF911F9153
:101A30000F910895FF920F931F93CF93DF93EC01C3
:101A4000162F042FF22E0E94DF0C8A85882319F0AE
:101A5000CE010E94D2092A893B89C90195958795B3
:101A60008C0F9D1FE889F98920FF08C0DC012D91AA
:101A70003C91E20FF31F0190F081E02D2F2D402FBC
:101A8000612FDF91CF911F910F91FF900994CF9318
:101A9000DF93DC01A354BF4F2C91283008F5EC01F3
:101AA000C454DF4FE881E531D8F4AC0175E1279FDC
:101AB000400D511D1124E40FF52FF11D648BFC0125
:101AC0002385211105C021E04C9168810E941A0DE7
:101AD00088818F5F888381E090E0DF91CF910895C6
:101AE00090E080E0FACFAF92BF92CF92DF92EF9278
:101AF000FF920F931F93CF93DF9382EEE82EF12C8A
:101B0000F701D081108209EE10E0F801B080108258
:101B100090EFC92ED12CF601A080108220E05D99B3
:101B2000216055992260822F55985D9A90E19A958F
:101B3000F1F7C9B10E946C08F8011082F601A08289
:101B4000F801B082F701D0838C2F90E025E09595C5
:101B500087952A95E1F7809590958170DF91CF91D7
:101B60001F910F91FF90EF90DF90CF90BF90AF90BB
:101B70000895BF92CF92DF92EF92FF920F931F933F
:101B8000CF93DF938C01EA016C012DEBC20ED11CC7
:101B9000F60130813830D8F57C01FCEBEF0EF11CFA
:101BA000F7018081853198F525E1281B90E0241705
:101BB000150620F4C5E1D0E0C81BD90BF5E13F9F25
:101BC000800D911D1124AE0198012C5E3F4F820FB4
:101BD000931F0E94BB1BBC2EF8018385811108C096
:101BE0002C2FF6014081F7016081C8010E941A0D77
:101BF000F70180818B0D8083CE01DF91CF911F9102
:101C00000F91FF90EF90DF90CF90BF900895D0E0BC
:101C1000C0E0F2CF1F920F920FB60F9211242F93B4
:101C20003F938F939F93AF93BF938091990290912D
:101C30009A02A0919B02B0919C023091980223E0FD
:101C4000230F2D3758F50196A11DB11D2093980241
:101C50008093990290939A02A0939B02B0939C0266
:101C600080919D0290919E02A0919F02B091A0024E
:101C70000196A11DB11D80939D0290939E02A09399
:101C80009F02B093A002BF91AF919F918F913F911E
:101C90002F910F900FBE0F901F90189526E8230FDD
:101CA0000296A11DB11DD2CF1F920F920FB60F92B7
:101CB00011242F933F934F935F936F937F938F9351
:101CC0009F93AF93BF93EF93FF93E0911E01F09129
:101CD0001F010995FF91EF91BF91AF919F918F9156
:101CE0007F916F915F914F913F912F910F900FBE18
:101CF0000F901F9018951F920F920FB60F921124FC
:101D00002F933F934F935F936F937F938F939F9303
:101D1000AF93BF93EF93FF93E0911C01F0911D01EE
:101D20000995FF91EF91BF91AF919F918F917F9115
:101D30006F915F914F913F912F910F900FBE0F9038
:101D40001F9018951F920F920FB60F9211242F9388
:101D50003F934F935F936F937F938F939F93AF9333
:101D6000BF93EF93FF93E0911A01F0911B01099546
:101D7000FF91EF91BF91AF919F918F917F916F9163
:101D80005F914F913F912F910F900FBE0F901F9039
:101D900018951F920F920FB60F9211242F933F9315
:101DA0004F935F936F937F938F939F93AF93BF9363
:101DB000EF93FF93E0911801F09119010995FF91BC
:101DC000EF91BF91AF919F918F917F916F915F91B3
:101DD0004F913F912F910F900FBE0F901F9018952C
:101DE0001F920F920FB60F9211242F933F934F9390
:101DF0005F936F937F938F939F93AF93BF93EF9373
:101E0000FF93E0911601F09117010995FF91EF9171
:101E1000BF91AF919F918F917F916F915F914F9102
:101E20003F912F910F900FBE0F901F9018951F920A
:101E30000F920FB60F9211248F939F938091E10020
:101E40009091E100937F9093E10083FF0FC0109287
:101E5000E90091E09093EB001092EC0092E39093F4
:101E6000ED001092AE0298E09093F00082FF22C045
:101E700093E09093E9009091F200992319F09AE38E
:101E80009093E80090916F02992341F090916F0236
:101E9000915090936F02911101C05D9A9091AD02A3
:101EA000992341F09091AD0291509093AD02911120
:101EB00001C0289A84FF18C08091E2008E7E816064
:101EC0008093E2008091E1008F7E8093E100809119
:101ED00070028E7E8061809370029F918F910F902F
:101EE0000FBE0F901F90189580FFF7CF8091E200F2
:101EF0008E7E80618093E2008091E1008E7E8093EF
:101F0000E100809170028E7E8160E5CF1F920F927A
:101F10000FB60F921124CF92DF92EF92FF920F93A0
:101F20001F932F933F934F935F936F937F938F9361
:101F30009F93AF93BF93EF93FF93CF93DF93CDB76F
:101F4000DEB76C97DEBFCDBF1092E9008091E8004C
:101F500083FF25C068E0CE0145960E94D30382EF3F
:101F60008093E8008D8987FF39C09091E80090FF49
:101F7000FCCF982F907609F034C19E894F89588DF7
:101F80002F89F88C911131C0803861F580917102F0
:101F90008093F1001092F1008EEF8093E8006C9630
:101FA0000FB6F894DEBF0FBECDBFDF91CF91FF918A
:101FB000EF91BF91AF919F918F917F916F915F91C1
:101FC0004F913F912F911F910F91FF90EF90DF90D4
:101FD000CF900F900FBE0F901F9018959EEF90938B
:101FE000E800C7CF1092F100D5CF913059F481119C
:101FF000D3CF4130510581F6809171028D7F80935E
:102000007102CACF933049F48111C6CF41305105D6
:1020100019F6809171028260F2CF953041F480917F
:10202000E80080FFFCCF20682093E300B5CF963016
:1020300009F0A9C00B8D1C8D22E01092E9001092CE
:102040006D0210926C02F2122EC010926B0210926E
:102050006A020E94A2031F8299E09983FA8291E0AA
:102060009E8390EA98879AEF998720916C0230912D
:102070006D02275F3F4F3C832B838D831092E900D5
:1020800010926D0210926C0210936B0200936A0220
:1020900049E050E0BE016F5F7F4F80E00E947C030B
:1020A0000E94A20379CF10936B0200936A020E94F0
:1020B0006802DC0112960D911C910115110509F4BD
:1020C00051C1D801ED91FC910480F581E02DBE0154
:1020D0006B5E7F4FC8010995009709F03EC1F8017A
:1020E00000851185EACFF3E0FF120EC08F898823A7
:1020F00009F440C0823061F440E862E183E293E099
:102100000E941515811148CF81E28093EB0047CFE3
:10211000813029F440E862E180E193E0F1CF83303F
:1021200099F70E946802DC011296ED90FC908E01F6
:102130000F5F1F4F6801E114F10479F0D701ED91B1
:10214000FC910680F781E02DB801C7010995080FC1
:10215000111DF701E084F184EECFD8011C92F60145
:1021600001900020E9F73197BF016C197D0940E02B
:10217000C601C6CF6AEF72E0FB01449150E080E8EF
:102180000E947C0309CF973009F4BECF983021F428
:1021900081E08093F10000CF993009F0FDCE83708B
:1021A00009F0B2CFEEE3F1E081E031E096E3219176
:1021B000222371F08093E9003093EB00DF01119747
:1021C0002C912093EC009093ED008F5F873079F78E
:1021D0008EE78093EA001092EA008F898093AE0226
:1021E000DBCE8B8D9C8D1092E90010926D021092C7
:1021F0006C0290936B0280936A02898D811192C068
:102200008E899D89913A49F4813209F07DCF47E06A
:1022100050E06EE071E080E0B3CF913209F074CF0E
:10222000833269F48F89988DB0E0A0E080930A0131
:1022300090930B01A0930C01B0930D01ADCE8032B1
:1022400069F48091E80082FFFCCF67E08EE091E0C6
:102250000E94D3038BEF8093E8009ECE823209F078
:102260009BCE8F8980931501EEEFFFE785919491C6
:102270008B3F9C4D51F1E0E0F8E080910E01909190
:102280000F01A0911001B0911101803B9440A10574
:10229000B105F1F48091150180FD1AC0EE3F8AE08E
:1022A000F80789F587E797E791838083809160003D
:1022B00080936E0288E19BE00FB6F894A895809316
:1022C00060000FBE9093600067CEEEEFFAE0D5CFCE
:1022D000808191818737974709F05ECEA8958091DC
:1022E000600088618093600080916E02809360003E
:1022F000EE3F2AE0F20789F08091FE0A9091FF0AF2
:102300009183808349CE808191818737980751F2EC
:102310009093FF0A8093FE0AC5CF1092FF0A109295
:10232000FE0A3ACE0E946802DC0112960D911C91C1
:102330000115110509F4E8CED801ED91FC91019049
:10234000F081E02DBE016B5E7F4FC80109958111C0
:1023500023CEF80100851185EBCF181619060CF471
:102360001BCED2CEF1E0FF12BECE6EEF72E004CFF4
:102370001F920F920FB60F9211244F925F926F929D
:102380007F928F929F92AF92BF92CF92DF92EF9205
:10239000FF920F931F932F933F934F935F936F93EE
:1023A0007F938F939F93AF93BF93CF93DF93EF93DD
:1023B000FF93C0916502D0916602CE010197909380
:1023C0006602809365022097A1F5109272007894BE
:1023D0008091C100807F84608093C10083E08093FE
:1023E000BF0088EE8093D1001092BF001092D200FF
:1023F00081E0809309018091680290916902892BA4
:10240000C1F080916302811114C070900801809125
:102410006202882379F180916102882359F16091E9
:10242000610270E040E088EE93E00E942F05109278
:102430006102FF91EF91DF91CF91BF91AF919F9199
:102440008F917F916F915F914F913F912F911F914C
:102450000F91FF90EF90DF90CF90BF90AF909F9043
:102460008F907F906F905F904F900F900FBE0F9066
:102470001F9018955524539470ECA72E7DE5B72E28
:10248000EAE04E2EF4E06F2EA0EDCA2EA7E0DA2E81
:10249000B4E0EB2EF12C04EF11E08FE0882E912CAC
:1024A0000E94E60420916802309169022F5F3F4F3D
:1024B0003093690220936802853609F473C00CF0EA
:1024C00047C0813609F4B4C024F58C3309F468C0E0
:1024D0008E3309F463C0813209F043C06092080171
:1024E000D0920501C0920401F0920701E09206012A
:1024F0001093030100930201909201018092000168
:102500001092620270900801809102019091030183
:10251000C7CF833609F48FC010E00BE0843614F087
:1025200010E002E04CE0749E000D11240E94E604CD
:10253000982F977F933209F080C080916802909124
:102540006902019690936902809368020F5FEECF53
:102550008D3609F445C054F4873651F134F18C3688
:1025600051F1109269021092680263CF823709F428
:102570004CC044F48F36A9F70E940705782E80934B
:1025800008018ECF843709F443C0863751F70E9483
:102590000705909301018093000182CF739480CF4F
:1025A0007A947ECF10E004E0BDCF10E005E0BACF12
:1025B00010E007E0B7CF0E940705909307018093D2
:1025C00006018091040190910501609106017091CE
:1025D00007010E942D1B709303016093020160CFDD
:1025E0000E94E6048C3661F41092620280916802C7
:1025F000909169020196909369028093680250CF8E
:102600005092620210926102F1CF11E000E08ACF95
:102610000E940705BC01C5010E942D1B469EC001FA
:10262000479E900D11249093050180930401C9CF1A
:1026300010E009E077CF10E0E9CF8D3269F48091A6
:1026400068029091690201969093690280936802F2
:1026500001500E94E604F1CFE0900201F0900301E6
:102660008153883058F4E0900401F09005010E94F5
:102670000705BC01C7010E942D1B7B016701D69491
:10268000C7940E94E6048E3261F4809168029091B2
:10269000690201969093690280936802EC0CFD1C1C
:1026A000EECF80916202882349F0C7019695879505
:1026B0008093610280916102E81AF108C0900001E4
:1026C000D0900101111104C00F3F11F0C11007C0DB
:1026D00040E0B70188EE93E00E942F05AACE0131B9
:1026E00028F010EF100F103608F01FE5812F6CE076
:1026F0000E94211B582F44EF450390011124210F04
:10270000311D2C30310538F4220F331FF901EB5DF8
:10271000FE4FC081D1818730C1F0082E02C0CC0F9E
:10272000DD1F0A94E2F7823040F0CE0105966AE0A0
:1027300070E00E942D1BCB0102C0CE0190584C2DA1
:10274000403108F04FE0B701C7CFCE0126E0880F37
:10275000991F2A95E1F7029665E070E0EACF1F9293
:102760000F920FB60F9211242F933F934F936F93B5
:102770007F938F939F938CB1282F30E035952795C9
:1027800035952795422F417083B190E064E095958F
:1027900087956A95E1F78227817020915C0290917C
:1027A0005B02609172027091730228279427291BA3
:1027B000330B260F371F3093730220937202209140
:1027C0005B0290915C02281729F0941719F091E0B0
:1027D00090935A0280935B0240935C029F918F9189
:1027E0007F916F914F913F912F910F900FBE0F905E
:1027F0001F9018951F920F920FB60F9211242F93CE
:102800003F934F935F936F937F938F939F93AF9378
:10281000BF93EF93FF938091B900887F803609F4CE
:102820004AC0F0F5883209F4A5C018F5803109F4E2
:1028300099C0B8F4882309F4F5C0883009F492C02F
:10284000FF91EF91BF91AF919F918F917F916F9188
:102850005F914F913F912F910F900FBE0F901F905E
:102860001895883109F486C0803251F7809333027D
:1028700014C0803409F49BC040F48033B9F388332A
:10288000F9F68093330285ECAEC0803509F483C03D
:10289000883509F494C0883499F60E946A0CD0CF28
:1028A000883909F48AC038F5883729F050F4883619
:1028B00011F0803729F683E08093340210923202BF
:1028C00055C0883809F479C0803919F0803809F08A
:1028D000B7CF80913202803208F06FC0E0913202AF
:1028E00081E08E0F809332028091BB00F0E0EE5EBB
:1028F000FD4F80833BC0803B39F0D0F4803A09F42F
:1029000077C0883A09F09CCF84E08093340210921B
:10291000110210921002F0E0E0E00995809110029F
:1029200081110FC081E0809310021092F00109C064
:10293000803C09F4A8CF883C09F4A5CF883B09F076
:102940007FCFE091110281E08E0F80931102F0E0C1
:10295000E051FE4F80818093BB00909111028091E5
:10296000100229C0809159028093BB0085EC8093AE
:10297000BC0066CF9091580280915702981758F585
:10298000E091580281E08E0F80935802F0E0E95CFC
:10299000FD4F8081E9CFE091580281E08E0F809356
:1029A00058028091BB00F0E0E95CFD4F808390917C
:1029B0005802809157029817C8F285E8D8CFE09165
:1029C000580281E08E0F809358028091BB00F0E0A6
:1029D000E95CFD4F80838091360281115ECF81E0FA
:1029E0008093350284EA8093BC001092340228CF91
:1029F00085EC8093BC0010923402809132028032C8
:102A000030F4E0913202F0E0EE5EFD4F1082609112
:102A1000320270E082E192E0F0E0E0E0099510928D
:102A200032020ECF1092330238CFEF92FF920F9303
:102A30001F93CF93DF93F82E192FE62E042F81E0FA
:102A4000860F880F0E944E0383E00E944E03CF2D15
:102A5000D12FEC0EFD2EF11CCE15DF05B9F007FFCE
:102A600013C0FE0184910E944E03182F80E00E9443
:102A70004E03812321968111EFCFDF91CF911F91DA
:102A80000F91FF90EF9008958881EDCF81E0F5CF11
:102A90001F93CF93DF93EFEAF2E01382128288EE66
:102AA00093E0A0E0B0E084839583A683B78388E4B5
:102AB00091E0918380838FEF9FEF95878487EFEE7E
:102AC000F3E01282158210868EE0818711E0128772
:102AD00013878CE691E091838083E7EEF3E0128226
:102AE000158286E691E091838083CFEFD2E01B824E
:102AF0001A8248EA50E060E270E083E193E00E94CD
:102B0000C41B1092E6031092E5038EE399E09D87C3
:102B10008C871F861E8687E09AE0998B888B1B8A9C
:102B20001A8A1A878AE591E099838883DF91CF9189
:102B30001F910895789484B5826084BD84B58160C6
:102B400084BD85B5826085BD85B5816085BD809178
:102B50006E00816080936E001092810080918100F0
:102B600082608093810080918100816080938100E8
:102B700080918000816080938000809191008260CC
:102B80008093910080919100816080939100809169
:102B900090008160809390008091C1008460809358
:102BA000C1008091C10082608093C1008091C1000A
:102BB00081608093C1008091C30081608093C300D5
:102BC0008091C00082608093C0008091C2008160CB
:102BD0008093C20080917A00846080937A00809113
:102BE0007A00826080937A0080917A00816080937D
:102BF0007A0080917A00806880937A001092AE0209
:102C000010927102109270028091D70081608093BF
:102C1000D70080EA8093D80089B5806189BD89B5E5
:102C2000826089BD09B400FEFDCF61E070E080E004
:102C300090E00E941B038091D8008F7C806180937C
:102C4000D8008091E000807F8093E0008091E100D7
:102C50008E7E8093E1008DE08093E200559A209A69
:102C60008FEF9FEF9093BC028093BB028FEE93E0B7
:102C70000E9408068823D1F36AE070E080E090E0CB
:102C80000E941B038FEE93E00E940806882371F3D5
:102C90008FEF92E00E94DF0C48EA50E060E270E0C3
:102CA00083E193E00E94C41B1092BB031092BC030B
:102CB00080910A03811126C08FEF92E00E94DF0C01
:102CC00080910903882321F08FEF92E00E94D209BE
:102CD00020910D0330910E03C90195958795815080
:102CE0009D4FE0910B03F0910C0320FF08C0DC0125
:102CF0002D913C91E20FF31F0190F081E02D099599
:102D000010920A030E94BE0A04E61AE033243394A8
:102D100082E0282EC0E0D0E080912401882341F099
:102D200086E990E00E94C60686E990E00E94A60629
:102D30000E94BE0AF894C0907202D0907302109262
:102D400073021092720278940E94BE0AF8948090E6
:102D50007402909075021092750210927402789429
:102D60000D2C000CEE08FF0880917E0290917F02EE
:102D7000A0918002B0918102C80ED91EEA1EFB1EEE
:102D8000C0927E02D0927F02E0928002F092810295
:102D9000092C000CAA08BB08809178029091790256
:102DA000A0917A02B0917B02880E991EAA1EBB1ECA
:102DB0008092780290927902A0927A02B0927B027D
:102DC0000E94B40880917C0290917D02B601681B3C
:102DD000790B072E000C880B990B0E94EA192AE741
:102DE00030E341E65EE30E949F1A2DEC3CE643E6A9
:102DF00054E40E9447192B013C0180917602909186
:102E00007702B401681B790B072E000C880B990B15
:102E10000E94EA192AE730E341E65EE30E949F1A26
:102E20002DEC3CE643E654E40E9447199B01AC01BB
:102E30009092770280927602D0927D02C0927C02BC
:102E4000C301B2010E94D61820E030E040E05FE309
:102E50000E949F1A6B017C01C0929402D09295024D
:102E6000E0929602F09297020E9479080E94B408BC
:102E7000C701B6010E9479082DEC3CEC4CE45DE3FF
:102E80006091820270918302809184029091850208
:102E90000E949F1A209186023091870240918802F9
:102EA000509189020E949F1A20E030E040EC5FE3DD
:102EB0000E9447199B01AC0160918E0270918F02B4
:102EC00080919002909191020E94D61860938E0298
:102ED00070938F0280939002909391020E94B408A5
:102EE000C701B6010E9479082DEC3CEC4CE45DE38F
:102EF0006091820270918302809184029091850298
:102F00000E949F1A20918602309187024091880288
:102F1000509189020E949F1A20E030E040E05FE378
:102F20000E949F1A9B01AC0160918A0270918B02F2
:102F300080918C0290918D020E94D61860938A0233
:102F400070938B0280938C0290938D021092E60313
:102F50001092E50388E799E090930C0380930B03AC
:102F600010920E0310920D031093100300930F03A1
:102F70001092120310921103309209032092BB03A6
:102F80001092BC036DE771E08FEF92E00E940E0B90
:102F90003092BB032092BC0364E871E08FEF92E0B3
:102FA0000E940E0B409194025091950260919602FE
:102FB0007091970222E08FEF92E00E947C0B2092AA
:102FC000BB0393E09093BC036AE871E08FEF92E05B
:102FD0000E940E0B409186025091870260918802F8
:102FE0007091890222E08FEF92E00E947C0B20E03A
:102FF00030E0A9016091940270919502809196024F
:10300000909197020E949A1A181624F520918E0228
:1030100030918F0240919002509191026091200175
:103020007091210180912201909123010E94D51875
:103030006B017C0120E030E040EA51E40E9442193B
:1030400087FD96C0C0922001D0922101E09222011A
:10305000F092230187EE93E00E94730D882309F418
:10306000A1C0109224018AE69FEF0E94C6068AE65C
:103070009FEF0E94A60620918A0230918B02409118
:103080008C0250918D0260912001709121018091FC
:103090002201909123010E94D6186B017C0120E04F
:1030A00030E048EC52E40E949A1A18160CF46DC0F5
:1030B000C0922001D0922101E0922201F0922301DE
:1030C0008EE891E00E94690B40912001509121010E
:1030D000609122017091230122E08FEA92E00E9428
:1030E0007C0B6EE671E08FEA92E00E940E0B8DE998
:1030F00091E00E94690B8091920290919302019657
:1031000090939302809392028DEA91E00E94690B62
:10311000C0909202D09093020D2C000CEE08FF0894
:103120002AE0B701A601F7FE0DC06DE28FEA92E03A
:103130000E94650444275527BA014C195D096E09A0
:103140007F092AE08FEA92E00E941D0B6EE671E093
:103150008FEA92E00E940E0B64EF71E080E090E055
:103160000E941B03209709F4D7CD0E940000D4CD04
:1031700080E090E0A0EAB1E48093200190932101E7
:10318000A0932201B093230165CF80E090E0A8ECEA
:10319000B2E48093200190932101A0932201B09387
:1031A00023018ECF309224018BCF5058BB27AA2702
:1031B0000E94ED180C94601A0E94521A38F00E9476
:1031C000591A20F039F49F3F19F426F40C944F1A41
:1031D0000EF4E095E7FB0C94491AE92F0E94711A4E
:1031E00058F3BA17620773078407950720F079F43C
:1031F000A6F50C94931A0EF4E0950B2EBA2FA02D81
:103200000B01B90190010C01CA01A0011124FF2793
:10321000591B99F0593F50F4503E68F11A16F0408E
:10322000A22F232F342F4427585FF3CF469537958D
:103230002795A795F0405395C9F77EF41F16BA0B52
:10324000620B730B840BBAF09150A1F0FF0FBB1F00
:10325000661F771F881FC2F70EC0BA0F621F731F49
:10326000841F48F4879577956795B795F7959E3FA6
:1032700008F0B0CF9395880F08F09927EE0F979537
:10328000879508950E94251A08F481E008950E9408
:103290005B190C94601A0E94591A58F00E94521A35
:1032A00040F029F45F3F29F00C94491A51110C9415
:1032B000941A0C944F1A0E94711A68F39923B1F36F
:1032C000552391F3951B550BBB27AA27621773074C
:1032D000840738F09F5F5F4F220F331F441FAA1FE0
:1032E000A9F335D00E2E3AF0E0E832D0915050409C
:1032F000E695001CCAF72BD0FE2F29D0660F771F4A
:10330000881FBB1F261737074807AB07B0E809F02F
:10331000BB0B802DBF01FF2793585F4F3AF09E3FB4
:10332000510578F00C94491A0C94941A5F3FE4F319
:10333000983ED4F3869577956795B795F7959F5FF7
:10334000C9F7880F911D9695879597F90895E1E043
:10335000660F771F881FBB1F621773078407BA07A2
:1033600020F0621B730B840BBA0BEE1F88F7E095FD
:1033700008950E94791A88F09F5798F0B92F9927DD
:10338000B751B0F0E1F0660F771F881F991F1AF050
:10339000BA95C9F714C0B13091F00E94931AB1E008
:1033A00008950C94931A672F782F8827B85F39F007
:1033B000B93FCCF3869577956795B395D9F73EF4E9
:1033C00090958095709561957F4F8F4F9F4F089591
:1033D000E89409C097FB3EF49095809570956195AF
:1033E0007F4F8F4F9F4F9923A9F0F92F96E9BB2765
:1033F0009395F695879577956795B795F111F8CFE1
:10340000FAF4BB0F11F460FF1BC06F5F7F4F8F4F4B
:103410009F4F16C0882311F096E911C0772321F041
:103420009EE8872F762F05C0662371F096E8862FD9
:1034300070E060E02AF09A95660F771F881FDAF730
:10344000880F9695879597F90895990F0008550F5D
:10345000AA0BE0E8FEEF16161706E807F907C0F01A
:1034600012161306E407F50798F0621B730B840B22
:10347000950B39F40A2661F0232B242B252B21F4FC
:1034800008950A2609F4A140A6958FEF811D811D9C
:10349000089597F99F6780E870E060E008959FEFD6
:1034A00080EC089500240A941616170618060906DB
:1034B000089500240A9412161306140605060895AA
:1034C000092E0394000C11F4882352F0BB0F40F432
:1034D000BF2B11F460FF04C06F5F7F4F8F4F9F4F72
:1034E000089557FD9058440F551F59F05F3F71F0F4
:1034F0004795880F97FB991F61F09F3F79F087955B
:103500000895121613061406551FF2CF4695F1DFE3
:1035100008C0161617061806991FF1CF8695710573
:10352000610508940895E894BB2766277727CB01A7
:1035300097F908950E94251A08F48FEF08950E94C4
:10354000B21A0C94601A0E94521A38F00E94591A4A
:1035500020F0952311F00C94491A0C944F1A112461
:103560000C94941A0E94711A70F3959FC1F3950FF1
:1035700050E0551F629FF001729FBB27F00DB11DF7
:10358000639FAA27F00DB11DAA1F649F6627B00D87
:10359000A11D661F829F2227B00DA11D621F739F70
:1035A000B00DA11D621F839FA00D611D221F749F7E
:1035B0003327A00D611D231F849F600D211D822FC5
:1035C000762F6A2F11249F5750409AF0F1F08823EC
:1035D0004AF0EE0FFF1FBB1F661F771F881F915019
:1035E0005040A9F79E3F510580F00C94491A0C9465
:1035F000941A5F3FE4F3983ED4F3869577956795E8
:10360000B795F795E7959F5FC1F7FE2B880F911D42
:103610009695879597F908950E94251A880B990B1E
:103620000895DB018F939F930E94AB1BBF91AF91D5
:10363000A29F800D911DA39F900DB29F900D11240C
:103640000895991B79E004C0991F961708F0961BFE
:10365000881F7A95C9F780950895AA1BBB1B51E175
:1036600007C0AA1FBB1FA617B70710F0A61BB70BF2
:10367000881F991F5A95A9F780959095BC01CD0197
:10368000089597FB072E16F4009407D077FD09D014
:103690000E942D1B07FC05D03EF4909581959F4F0D
:1036A0000895709561957F4F0895A1E21A2EAA1B87
:1036B000BB1BFD010DC0AA1FBB1FEE1FFF1FA217E2
:1036C000B307E407F50720F0A21BB30BE40BF50BDF
:1036D000661F771F881F991F1A9469F76095709568
:1036E000809590959B01AC01BD01CF010895052EF9
:1036F00097FB1EF400940E948E1B57FD07D00E947A
:10370000551B07FC03D04EF40C948E1B509540952E
:10371000309521953F4F4F4F5F4F0895909580957D
:10372000709561957F4F8F4F9F4F0895EE0FFF1F4C
:103730000590F491E02D0994A29FB001B39FC001C0
:10374000A39F700D811D1124911DB29F700D811DCD
:103750001124911D08950E949C1BA59F900DB49F5C
:10376000900DA49F800D911D1124089581E090E09B
:10377000F8940C94CB1BFB01DC0102C001900D926C
:1037800041505040D8F70895DC0101C06D9341507D
:0A3790005040E0F70895F894FFCFD1
:10379A000F00F401D00704000401FFFFFFFF00E15E
:1037AA000000000000004D034D034D034D034D037F
:1037BA000000C842019C01B501CF01EA01070226B7
:1037CA0002470269028E02B502DE020A0300C180C4
:1037DA0081000000000000006504E00386047B0409
:1037EA00CC048A04A80400000000470DB90D090B97
:1037FA00080B00000000730D0000000008060D0A07
:10380A00006E616E00696E66006F766600537065C1
:10381A00656459006D2F733A20006D3A20004261A9
:10382A0074746572794C6576656C3A20002D2D2D7D
:10383A002D2D2D2D2D2D2D2D2D2D2D2D0043686156
:0E384A007267696E6743796C63653A2000000F
:00000001FF
